:1000000024C072C671C670C66FC66EC66DC66CC699
:100010006BC66AC669C668C667C666C665C664C674
:1000200063C662C661C6006003E88003E803EE00B1
:100030000CF203EE03F48003F403F8000CF803F869
:100040000405800405040600010B11241FBECFE542
:10005000D4E0DEBFCDBFE6E2F0E040E017C0B591EE
:10006000A59135912591059107FD0CC0959185913C
:10007000EF01F92FE82F05900D92A217B307D9F7DA
:10008000FE0104C01D92A217B307E1F7EA34F4079A
:0A00900031F73CD012C6F894FFCF00
:10009A003C68746D6C3E3C626F64793E3C68313EEC
:1000AA003C703E447A6961B3613C2F703E3C2F68D4
:1000BA00313E3C2F626F64793E3C2F68746D6C3E12
:0100CA000035
:1000CB00485454502F312E3020323030204F4B0DAE
:1000DB000A436F6E74656E742D547970653A207493
:0D00EB006578742F68746D6C0D0A0D0A00A5
:1000F80055736572204167656E74004D534945001C
:030108002F2000A5
:01010B000AE9
:10010C00E1E6F0E080E880831082C2E38C2F8A95D0
:10011C00F1F788EE93E022D182E0D0D58C2F8A952E
:10012C00F1F766E774E084E112D5CA95F1F740E582
:10013C0050E064EF73E088EE93E01CD462E670E06C
:10014C0084E893E07DD090936100809360000097E9
:10015C00A9F3BC0182E690E09DD3882321F082E6CE
:10016C0090E09ED2EBCF609160007091610082E6CE
:10017C0090E069D3882311F380917900813061F488
:10018C0090918400983041F460916000709161000E
:10019C0082E690E0A9D4D2CF863081F68091860099
:1001AC008111CCCF80918700803541F680919100F0
:1001BC0081FF04C082E690E023D4C0CF84FFBECF81
:1001CC0082E690E0B2D345D5EC01009741F48091E2
:1001DC00910080FFB3CF82E690E009D3AFCF8E5968
:1001EC009F4F6C0120E8E22E28EF30E040E08E2D8E
:1001FC00B601A8D1672B682B19F01092E70310C039
:10020C0023E031E040E08E2DB6019CD1672B682BAA
:10021C0021F081E08093E70303C082E08093E70341
:10022C009E012A593F4F40E802E010E068E071E07F
:10023C0080E0A8D2892B09F081CFA1D425D57ECF1F
:10024C00CF92DF92EF92FF920F931F93CF93DF9396
:10025C00EC017B0189E323D5882309F474C06091F8
:10026C00FC0380E005D56091FD0381E001D560E0E1
:10027C008AE3B4D490E09093FD038093FC0360E098
:10028C008AE3ACD490E0982F88272091FC0330911E
:10029C00FD03822B932B9093FD038093FC0360E072
:1002AC008AE39CD4C82ED12C60E08AE397D4082F23
:1002BC0010E0102F00270C291D290450110960E0B3
:1002CC008AE38CD4C82ED12C60E08AE387D490E0EA
:1002DC00982F88278C299D292197C017D10708F0C2
:1002EC00E80187FF04C0B701CE01C8D302C0C0E04B
:1002FC00D0E06091FC038CE0BBD46091FD038DE0F9
:10030C00B7D46091FC037091FD03CB0101978F3F33
:10031C00994138F06EEF8CE0ABD469E18DE0A8D454
:10032C000BC061508CE0A4D48091FC039091FD0330
:10033C000197692F8DE09CD440E46EE180E877D47E
:10034C008C2F9D2F02C080E090E0DF91CF911F9108
:0C035C000F91FF90EF90DF90CF9008957C
:10036800CF93DF93EC0187B3846087BBB2D487B3A4
:10037800886287BB87B38F7E87BB88B3877F88BB3C
:1003880088B38F7D88BB80E58DB98EB181608EB9C9
:100398004FEF60E08FEF4DD48DEC8A95F1F7109216
:1003A800FD031092FC0360E088E064D460E089E01B
:1003B80061D460E08CE05ED460E08DE05BD46EEFE9
:1003C8008AE058D469E18BE055D46FEF84E052D4C9
:1003D80069E185E04FD46FEF86E04CD46FE187E0A8
:1003E80049D460EB88E346D46FE388E243D460E302
:1003F80089E240D469EF80E33DD467EF81E33AD4E2
:100408006DE080EC37D460E081EC34D442E362ECF8
:1004180080E80FD462E186EC2DD46CE087EC2AD416
:1004280062E184EC27D46CED8AEC24D465E08BEC93
:1004380021D4688184EE1ED4698185EE1BD46A813B
:1004480082EE18D46B8183EE15D46C8180EE12D4C1
:100458006D8181EE0FD460E071E080E17AD38FE1A5
:1004680041D240EC6BE180E8E4D344E06FE180E8FE
:08047800E0D3DF91CF9108955C
:10048000CF93DF93DC0192968C91929794968C9304
:10049000949793968C91939795968C93959780913A
:1004A00002049091030492969C93929793968C9356
:1004B000939784E016C0E82FF0E0EF01A596CA0FED
:1004C000DB1F9881690F711DB996EA0FFB1F9081A0
:1004D0006083222311F0988301C01882672F772749
:1004E00081508111E8CF211111C096961C929697E8
:1004F00097961C9297978091050498968C9398975D
:1005000099961C9299978E5F80930504D2961C92BF
:10051000D297D3961C92D3974423A1F082E0D6962B
:100520008C93D69784E0D7968C93D79785E0D8960E
:100530008C93D89780E8D9968C93D99780E69E962D
:100540008C9303C080E59E968C93DF91CF910895A4
:100550002F923F924F926F927F928F92CF92DF9223
:10056000EF920F931F93A82FCB018901242FF8013D
:10057000649127FD6081062E000C770B61157105D3
:10058000A9F1FC014491A7FD4081442359F1042EB7
:10059000000C550B1C014A2E3FEF231A330A430A65
:1005A00064177507E1F46801E22E5FEFC51AD50AFA
:1005B000E50A842C3101F6013491E7FC30813323C4
:1005C000A9F0F301449187FC40815FEFC51AD50A79
:1005D000E50A5FEF651A750A850A341761F3A42DE1
:1005E000C101CFCF60E070E080E002C0BC018A2F83
:1005F0001F910F91EF90DF90CF908F907F906F9031
:080600004F903F902F900895E8
:10060800CF93FC019B01413041F4CB010897A0E056
:10061800B0E04196A11DB11D03C080E090E0DC016F
:100628004230E1F40696A11DB11DA90148505109B7
:10063800840F951FA11DB11D11C0408150E060E0DD
:1006480070E0762F652F542F4427C1814C2B840FDF
:10065800951FA61FB71F3296225031092230310547
:1006680060F7232B99F0408150E060E070E0762F2E
:10067800652F542F4427840F951FA61FB71F06C048
:10068800AA27BB27840F951FA61FB71FAD01662792
:100698007727411551056105710591F7809590956A
:0406A800CF91089551
:1006AC00CF93DF93EC0183D21C8A82E08D8B20E008
:1006BC0012C0822F90E0DC019096AC0FBD1FFC01A4
:1006CC007696EC0FFD1F30813C93DC01A251BC4FA0
:1006DC008C9180832F5F263060F320E012C0822F34
:1006EC0090E0DC019696AC0FBD1FFC017C96EC0FE4
:1006FC00FD1F30813C93DC01A850BC4F8C91808352
:10070C002F5F243060F3BE018AE290E003D0DF91CA
:04071C00CF910895DC
:100720000F931F93CF93DF93EC018B010CC08CE1EF
:10073000BCD281FF08C040E86FE180E87ED240E88B
:100740006FE180EA7AD26FE180E04ED283FDEFCF95
:100750006FEF82E093D269E183E090D26C2F615019
:1007600086E08CD2CE018150964E692F87E086D2EA
:1007700040E060E08AE761D2B801CE01D5D148E01F
:100780006FE180E85AD2DF91CF911F910F910895C8
:10079000CF92DF92EF920F931F936B01E82E01151A
:1007A000110519F101501109F6018491E7FC8081CE
:1007B000882399F0F901949147FD9081992369F07C
:1007C0000115110551F0891308C08FEFC81AD80A16
:1007D000E80A2F5F3F4F4F4FE5CF90E0F90124919A
:1007E00047FD2081821B910902C080E090E01F91AB
:0A07F0000F91EF90DF90CF90089575
:1007FA00CF93DF93EC01DCD180E18FA76091FE03F8
:10080A007091FF036115710539F421E040E061E060
:10081A0070E0CE0130DE04C021E040E0CE012BDEE4
:10082A00188A88E2898BCE0146D142E06CE170E0F9
:10083A00CE014A96E4DE9AAB8BABBE0186E390E02A
:08084A006ADFDF91CF910895F0
:10085200FC016A327105E8F084858830E1F485850F
:1008620081111BC096859534C9F490E00EC0292FE2
:1008720030E0D9015E96AE0FBF1F4C91D901A8504E
:10088200BC4F2C9142130AC09F5F943080F381E0E9
:0E089200089580E0089580E0089580E00895C4
:1008A00069327105D8F0FC0124852830C9F425850A
:1008B0002630C1F440E00EC0242F30E0F901B69696
:1008C000E80FF91F5081F901E850FC4F20815213C5
:1008D0000BC04F5F443080F381E0089580E00895BD
:0C08E00080E0089580E0089580E0089515
:1008EC001F93CF93DF93182F1076C12FD0E08091F8
:1008FC00040490E0C817D907A1F043E06FE180EA47
:10090C0096D1AE0155954795559547955595479573
:10091C0055954795559547956FE180E888D110938B
:0A092C000404DF91CF911F9108959C
:10093600FC01208930E0322F22278189282B24517F
:10094600310986A582958F7090E0880F991F880FD0
:10095600991F9093010480930004A901481B590B29
:10096600CA015093FF034093FE031816190624F09C
:0A0976001092FF031092FE03089593
:10098000DC01509303044093020490E00BC0292F34
:1009900030E0FB01E20FF31F4081F901E850FC4F0A
:1009A00040839F5F943098F390E00BC0292F30E094
:1009B000FD01E20FF31F4081F901E251FC4F40833A
:0809C0009F5F963098F3089543
:1009C8000F931F93CF93DF93EC018B0189E18FA7DE
:1009D800CB018896988B898BCE0117D11AAA1BAAAE
:1009E800B801645E7F4F42E0CE014A9609DE9AABB9
:1009F8008BABBE01C801C6968FDEDF91CF911F91E8
:040A08000F910895AD
:100A0C00CF93DF93EC01D3D0188A8CE2898BCE0183
:100A1C0051D082E18FA720E041E061E070E0CE018F
:100A2C0029DD42E060E270E0CE014A96E7DD9AAB48
:100A3C008BABBE018AE390E06DDEDF91CF91089520
:100A4C00CF92DF92EF92DB0108C0FD01F696E80F22
:100A5C00F91F408311964E2D96016901E42E5FEF2C
:100A6C00C51AD50AE50A642FA901FA01449141116E
:0C0A7C00ECCFCD01EF90DF90CF900895FB
:100A88000F931F93CF93DF93EC018B011ED18AE361
:100A98008FB923D107C021971FB81FD18FB1F80193
:100AA80081938F012097B9F7F801108212D1DF9155
:080AB800CF911F910F910895E9
:100AC000AC0190E012C0292F30E0D9015E96A40F4E
:100AD000B51FF9017A96E40FF51F80818C93D90137
:100AE000A850BC4F8C9180839F5F943060F3CA0103
:040AF00090D0089505
:100AF4000F931F93CF93DF93EC018B015CD0CE0156
:100B0400DDDF1AA28CA1883F18F09DA19F5F9DA3F1
:100B1400885F8CA3BE01C80101DEDF91CF911F91D4
:040B24000F91089590
:100B28000F931F93CF93DF93EC018B01CED08AE70D
:100B38008FB9D3D006C02197F80181918F018FB961
:100B4800CCD02097C1F7C5D0DF91CF911F910F91DD
:020B58000895FE
:100B5A00CF93DF93D62FC72F682F84ED8AD06D2FBE
:100B6A0086ED87D06C2F87ED84D003C085E08A9507
:100B7A00F1F78AEE95D080FDF9CFDF91CF910895F4
:100B8A002BEC30E040E060E070E082E690E059DF74
:100B9A0090936100809360002AE930E040E0BC0154
:100BAA0082E690E04EDF90936100809360000895A2
:100BBA00AC0190E011C0292F30E0DA01A20FB31F77
:100BCA00F9013696E40FF51F80818C93D901A25161
:0E0BDA00BC4F8C9180839F5F963068F3089526
:100BE800CF93DF93C82FD62F70D08D2F8F71C82B3E
:100BF800CFB973D01FB871D0DD2314F41FB86DD0EE
:0A0C080068D08FB1DF91CF910895FD
:100C1200CF93DF93EC01188E198E80E48C8B1D8AA2
:100C22008E8B40E064E170E0CE010E96ECDC988F92
:080C3200898FDF91CF91089535
:100C3A001F93CF93DF93C82FD62F142F45D0DF7180
:100C4A00CD2BCFB949D01FB947D042D0DF91CF9130
:040C5A001F91089549
:100C5E008091FE039091FF03892B31F08091000467
:0E0C6E00909101048296089580E090E0089530
:100C7C00CF93DF93C82FD62F33DE4D2F6C2F80E40C
:080C8C00D6DFDF91CF9108953E
:100C940082E690E0B0DD609160007091610082E6D0
:060CA40090E090DE0895CF
:100CAA00CF93C82F1EDE6C2F80E099DFCF91089575
:0E0CBA00EC0117D015D0CE0115D0CE0114D00C
:0A0CC800682F677085E7D6DF0895F6
:080CD20088B38B7F88BB0895F5
:080CDA0088B3846088BB089513
:060CE200779BFECF089590
:020CE8008BC9B6
:020CEA0008956B
:020CEC00089569
:020CEE00089567
:020CF000D2D957
:060CF200625F707261797F
:040CF800C0A800FE92
:00000001FF
